{
  "contractName": "trustedGroup",
  "abi": [
    {
      "inputs": [],
      "stateMutability": "nonpayable",
      "type": "constructor"
    },
    {
      "anonymous": false,
      "inputs": [
        {
          "indexed": true,
          "internalType": "address",
          "name": "_from",
          "type": "address"
        },
        {
          "indexed": false,
          "internalType": "string",
          "name": "_encMessage",
          "type": "string"
        }
      ],
      "name": "Comm",
      "type": "event"
    },
    {
      "anonymous": false,
      "inputs": [
        {
          "indexed": true,
          "internalType": "address",
          "name": "previousOwner",
          "type": "address"
        },
        {
          "indexed": true,
          "internalType": "address",
          "name": "newOwner",
          "type": "address"
        }
      ],
      "name": "OwnershipTransferred",
      "type": "event"
    },
    {
      "anonymous": false,
      "inputs": [
        {
          "indexed": false,
          "internalType": "address",
          "name": "_from",
          "type": "address"
        },
        {
          "indexed": false,
          "internalType": "string",
          "name": "_key",
          "type": "string"
        }
      ],
      "name": "ReqToken",
      "type": "event"
    },
    {
      "anonymous": false,
      "inputs": [
        {
          "indexed": false,
          "internalType": "address",
          "name": "_to",
          "type": "address"
        },
        {
          "indexed": false,
          "internalType": "string",
          "name": "_encToken",
          "type": "string"
        }
      ],
      "name": "SToken",
      "type": "event"
    },
    {
      "inputs": [],
      "name": "owner",
      "outputs": [
        {
          "internalType": "address",
          "name": "",
          "type": "address"
        }
      ],
      "stateMutability": "view",
      "type": "function",
      "constant": true
    },
    {
      "inputs": [],
      "name": "renounceOwnership",
      "outputs": [],
      "stateMutability": "nonpayable",
      "type": "function"
    },
    {
      "inputs": [
        {
          "internalType": "address",
          "name": "newOwner",
          "type": "address"
        }
      ],
      "name": "transferOwnership",
      "outputs": [],
      "stateMutability": "nonpayable",
      "type": "function"
    },
    {
      "inputs": [
        {
          "internalType": "address",
          "name": "member",
          "type": "address"
        }
      ],
      "name": "addMember",
      "outputs": [],
      "stateMutability": "nonpayable",
      "type": "function"
    },
    {
      "inputs": [
        {
          "internalType": "string",
          "name": "publicKey",
          "type": "string"
        }
      ],
      "name": "requestToken",
      "outputs": [],
      "stateMutability": "nonpayable",
      "type": "function"
    },
    {
      "inputs": [
        {
          "internalType": "string",
          "name": "EncryptedToken",
          "type": "string"
        },
        {
          "internalType": "address",
          "name": "receiver",
          "type": "address"
        }
      ],
      "name": "sendToken",
      "outputs": [],
      "stateMutability": "nonpayable",
      "type": "function"
    },
    {
      "inputs": [
        {
          "internalType": "string",
          "name": "encMessage",
          "type": "string"
        }
      ],
      "name": "communicate",
      "outputs": [],
      "stateMutability": "nonpayable",
      "type": "function"
    }
  ],
  "bytecode": "0x608060405234801561001057600080fd5b5061002d6100226100e160201b60201c565b6100e960201b60201c565b60018060003373ffffffffffffffffffffffffffffffffffffffff1673ffffffffffffffffffffffffffffffffffffffff16815260200190815260200160002060006101000a81548160ff0219169083151502179055506001600260003373ffffffffffffffffffffffffffffffffffffffff1673ffffffffffffffffffffffffffffffffffffffff16815260200190815260200160002060006101000a81548160ff0219169083151502179055506101ad565b600033905090565b60008060009054906101000a900473ffffffffffffffffffffffffffffffffffffffff169050816000806101000a81548173ffffffffffffffffffffffffffffffffffffffff021916908373ffffffffffffffffffffffffffffffffffffffff1602179055508173ffffffffffffffffffffffffffffffffffffffff168173ffffffffffffffffffffffffffffffffffffffff167f8be0079c531659141344cd1fd0a4f28419497f9722a3daafe3b4186f6b6457e060405160405180910390a35050565b610d72806101bc6000396000f3fe608060405234801561001057600080fd5b506004361061007d5760003560e01c80639c4bd5051161005b5780639c4bd505146100c6578063ca6d56dc146100e2578063e57fafca146100fe578063f2fde38b1461011a5761007d565b80635795e15714610082578063715018a61461009e5780638da5cb5b146100a8575b600080fd5b61009c600480360381019061009791906108e4565b610136565b005b6100a6610208565b005b6100b0610290565b6040516100bd9190610972565b60405180910390f35b6100e060048036038101906100db91906109b9565b6102b9565b005b6100fc60048036038101906100f79190610a19565b6103cd565b005b610118600480360381019061011391906108e4565b610537565b005b610134600480360381019061012f9190610a19565b6106b1565b005b60011515600160003373ffffffffffffffffffffffffffffffffffffffff1673ffffffffffffffffffffffffffffffffffffffff16815260200190815260200160002060009054906101000a900460ff161515146101c9576040517f08c379a00000000000000000000000000000000000000000000000000000000081526004016101c090610aa3565b60405180910390fd5b7f8d8c6f70dca82ff9e6f747a904812ee535013461d94ea16a8d23feb7338536143383836040516101fc93929190610b10565b60405180910390a15050565b6102106107a9565b73ffffffffffffffffffffffffffffffffffffffff1661022e610290565b73ffffffffffffffffffffffffffffffffffffffff1614610284576040517f08c379a000000000000000000000000000000000000000000000000000000000815260040161027b90610b8e565b60405180910390fd5b61028e60006107b1565b565b60008060009054906101000a900473ffffffffffffffffffffffffffffffffffffffff16905090565b6102c16107a9565b73ffffffffffffffffffffffffffffffffffffffff166102df610290565b73ffffffffffffffffffffffffffffffffffffffff1614610335576040517f08c379a000000000000000000000000000000000000000000000000000000000815260040161032c90610b8e565b60405180910390fd5b6001600260008373ffffffffffffffffffffffffffffffffffffffff1673ffffffffffffffffffffffffffffffffffffffff16815260200190815260200160002060006101000a81548160ff0219169083151502179055507fa26946b2efd64fe2ab846b62ce8ac4530fd76c1a2349b68f808a622c0fe57b1a8184846040516103c093929190610b10565b60405180910390a1505050565b6103d56107a9565b73ffffffffffffffffffffffffffffffffffffffff166103f3610290565b73ffffffffffffffffffffffffffffffffffffffff1614610449576040517f08c379a000000000000000000000000000000000000000000000000000000000815260040161044090610b8e565b60405180910390fd5b60011515600160008373ffffffffffffffffffffffffffffffffffffffff1673ffffffffffffffffffffffffffffffffffffffff16815260200190815260200160002060009054906101000a900460ff16151514156104dd576040517f08c379a00000000000000000000000000000000000000000000000000000000081526004016104d490610bfa565b60405180910390fd5b60018060008373ffffffffffffffffffffffffffffffffffffffff1673ffffffffffffffffffffffffffffffffffffffff16815260200190815260200160002060006101000a81548160ff02191690831515021790555050565b60011515600160003373ffffffffffffffffffffffffffffffffffffffff1673ffffffffffffffffffffffffffffffffffffffff16815260200190815260200160002060009054906101000a900460ff161515146105ca576040517f08c379a00000000000000000000000000000000000000000000000000000000081526004016105c190610aa3565b60405180910390fd5b60011515600260003373ffffffffffffffffffffffffffffffffffffffff1673ffffffffffffffffffffffffffffffffffffffff16815260200190815260200160002060009054906101000a900460ff1615151461065d576040517f08c379a000000000000000000000000000000000000000000000000000000000815260040161065490610c66565b60405180910390fd5b3373ffffffffffffffffffffffffffffffffffffffff167f69a432be11ae51e6163fda9963a3e961d914e52957fe88debefcf87b14382f6783836040516106a5929190610c86565b60405180910390a25050565b6106b96107a9565b73ffffffffffffffffffffffffffffffffffffffff166106d7610290565b73ffffffffffffffffffffffffffffffffffffffff161461072d576040517f08c379a000000000000000000000000000000000000000000000000000000000815260040161072490610b8e565b60405180910390fd5b600073ffffffffffffffffffffffffffffffffffffffff168173ffffffffffffffffffffffffffffffffffffffff16141561079d576040517f08c379a000000000000000000000000000000000000000000000000000000000815260040161079490610d1c565b60405180910390fd5b6107a6816107b1565b50565b600033905090565b60008060009054906101000a900473ffffffffffffffffffffffffffffffffffffffff169050816000806101000a81548173ffffffffffffffffffffffffffffffffffffffff021916908373ffffffffffffffffffffffffffffffffffffffff1602179055508173ffffffffffffffffffffffffffffffffffffffff168173ffffffffffffffffffffffffffffffffffffffff167f8be0079c531659141344cd1fd0a4f28419497f9722a3daafe3b4186f6b6457e060405160405180910390a35050565b600080fd5b600080fd5b600080fd5b600080fd5b600080fd5b60008083601f8401126108a4576108a361087f565b5b8235905067ffffffffffffffff8111156108c1576108c0610884565b5b6020830191508360018202830111156108dd576108dc610889565b5b9250929050565b600080602083850312156108fb576108fa610875565b5b600083013567ffffffffffffffff8111156109195761091861087a565b5b6109258582860161088e565b92509250509250929050565b600073ffffffffffffffffffffffffffffffffffffffff82169050919050565b600061095c82610931565b9050919050565b61096c81610951565b82525050565b60006020820190506109876000830184610963565b92915050565b61099681610951565b81146109a157600080fd5b50565b6000813590506109b38161098d565b92915050565b6000806000604084860312156109d2576109d1610875565b5b600084013567ffffffffffffffff8111156109f0576109ef61087a565b5b6109fc8682870161088e565b93509350506020610a0f868287016109a4565b9150509250925092565b600060208284031215610a2f57610a2e610875565b5b6000610a3d848285016109a4565b91505092915050565b600082825260208201905092915050565b7f4e6f742061206d656d6265720000000000000000000000000000000000000000600082015250565b6000610a8d600c83610a46565b9150610a9882610a57565b602082019050919050565b60006020820190508181036000830152610abc81610a80565b9050919050565b82818337600083830152505050565b6000601f19601f8301169050919050565b6000610aef8385610a46565b9350610afc838584610ac3565b610b0583610ad2565b840190509392505050565b6000604082019050610b256000830186610963565b8181036020830152610b38818486610ae3565b9050949350505050565b7f4f776e61626c653a2063616c6c6572206973206e6f7420746865206f776e6572600082015250565b6000610b78602083610a46565b9150610b8382610b42565b602082019050919050565b60006020820190508181036000830152610ba781610b6b565b9050919050565b7f4d656d62657220616c7265616479206578697374730000000000000000000000600082015250565b6000610be4601583610a46565b9150610bef82610bae565b602082019050919050565b60006020820190508181036000830152610c1381610bd7565b9050919050565b7f4d656d62657220646f65736e277420686176652074686520546f6b656e000000600082015250565b6000610c50601d83610a46565b9150610c5b82610c1a565b602082019050919050565b60006020820190508181036000830152610c7f81610c43565b9050919050565b60006020820190508181036000830152610ca1818486610ae3565b90509392505050565b7f4f776e61626c653a206e6577206f776e657220697320746865207a65726f206160008201527f6464726573730000000000000000000000000000000000000000000000000000602082015250565b6000610d06602683610a46565b9150610d1182610caa565b604082019050919050565b60006020820190508181036000830152610d3581610cf9565b905091905056fea264697066735822122008222560177b57e30985019909494f145786ee9f70afe9dd83ca758ccdd8882464736f6c634300080b0033",
  "immutableReferences": {},
  "source": "// SPDX-License-Identifier: GPL-3.0\npragma solidity >=0.8.0 <0.9.0;\n\nimport \"@openzeppelin/contracts/access/Ownable.sol\";\n\ncontract trustedGroup is Ownable {\n    mapping(address => bool) private members;\n    mapping(address => bool) private hasToken;\n\n    event ReqToken(address _from, string _key);\n    event SToken(address _to, string _encToken);\n    event Comm(address indexed _from, string _encMessage);\n\n    constructor() {\n        members[msg.sender] = true;\n        hasToken[msg.sender] = true;\n    }\n\n    function addMember(address member) public onlyOwner {\n        require(members[member] != true, \"Member already exists\");\n        members[member] = true;\n    }\n\n    function requestToken(string calldata publicKey) public {\n        require(members[msg.sender] == true, \"Not a member\");\n        emit ReqToken(msg.sender, publicKey);\n    }\n\n    function sendToken(string calldata EncryptedToken, address receiver)\n        public\n        onlyOwner\n    {\n        hasToken[receiver] = true;\n        emit SToken(receiver, EncryptedToken);\n    }\n\n    function communicate(string calldata encMessage) public {\n        require(members[msg.sender] == true, \"Not a member\");\n        require(hasToken[msg.sender] == true, \"Member doesn't have the Token\");\n        emit Comm(msg.sender, encMessage);\n    }\n}\n",
  "sourcePath": "/mnt/c/Users/chris/Documents/GitHub/Blockchain-trusted-communication/contracts/trustedGroup.sol",
  "compiler": {
    "name": "solc",
    "version": "0.8.11+commit.d7f03943.Emscripten.clang"
  },
  "schemaVersion": "3.4.4",
  "updatedAt": "2022-01-15T15:06:52.178Z",
  "networkType": "ethereum",
  "devdoc": {
    "kind": "dev",
    "methods": {
      "owner()": {
        "details": "Returns the address of the current owner."
      },
      "renounceOwnership()": {
        "details": "Leaves the contract without owner. It will not be possible to call `onlyOwner` functions anymore. Can only be called by the current owner. NOTE: Renouncing ownership will leave the contract without an owner, thereby removing any functionality that is only available to the owner."
      },
      "transferOwnership(address)": {
        "details": "Transfers ownership of the contract to a new account (`newOwner`). Can only be called by the current owner."
      }
    },
    "version": 1
  },
  "userdoc": {
    "kind": "user",
    "methods": {},
    "version": 1
  }
}